{
  "contractName": "CloneableWallet",
  "abi": [
    {
      "constant": true,
      "inputs": [],
      "name": "ERC223_ID",
      "outputs": [
        {
          "name": "",
          "type": "bytes4"
        }
      ],
      "payable": false,
      "stateMutability": "view",
      "type": "function"
    },
    {
      "constant": false,
      "inputs": [
        {
          "name": "_operator",
          "type": "address"
        },
        {
          "name": "_from",
          "type": "address"
        },
        {
          "name": "_tokenId",
          "type": "uint256"
        },
        {
          "name": "_data",
          "type": "bytes"
        }
      ],
      "name": "onERC721Received",
      "outputs": [
        {
          "name": "",
          "type": "bytes4"
        }
      ],
      "payable": false,
      "stateMutability": "nonpayable",
      "type": "function"
    },
    {
      "constant": true,
      "inputs": [],
      "name": "initialized",
      "outputs": [
        {
          "name": "",
          "type": "bool"
        }
      ],
      "payable": false,
      "stateMutability": "view",
      "type": "function"
    },
    {
      "constant": true,
      "inputs": [],
      "name": "AUTHORIZED",
      "outputs": [
        {
          "name": "",
          "type": "uint256"
        }
      ],
      "payable": false,
      "stateMutability": "view",
      "type": "function"
    },
    {
      "constant": true,
      "inputs": [],
      "name": "cosigner",
      "outputs": [
        {
          "name": "",
          "type": "address"
        }
      ],
      "payable": false,
      "stateMutability": "view",
      "type": "function"
    },
    {
      "constant": true,
      "inputs": [],
      "name": "RECOVERY",
      "outputs": [
        {
          "name": "",
          "type": "uint256"
        }
      ],
      "payable": false,
      "stateMutability": "view",
      "type": "function"
    },
    {
      "constant": true,
      "inputs": [
        {
          "name": "_operator",
          "type": "address"
        },
        {
          "name": "_from",
          "type": "address"
        },
        {
          "name": "tokenId",
          "type": "uint256"
        },
        {
          "name": "amount",
          "type": "uint256"
        },
        {
          "name": "data",
          "type": "bytes"
        }
      ],
      "name": "onERC721XReceived",
      "outputs": [
        {
          "name": "",
          "type": "bytes4"
        }
      ],
      "payable": false,
      "stateMutability": "pure",
      "type": "function"
    },
    {
      "constant": true,
      "inputs": [],
      "name": "nonce",
      "outputs": [
        {
          "name": "",
          "type": "uint256"
        }
      ],
      "payable": false,
      "stateMutability": "view",
      "type": "function"
    },
    {
      "constant": true,
      "inputs": [
        {
          "name": "_operator",
          "type": "address"
        },
        {
          "name": "_from",
          "type": "address"
        },
        {
          "name": "_types",
          "type": "uint256[]"
        },
        {
          "name": "_amounts",
          "type": "uint256[]"
        },
        {
          "name": "_data",
          "type": "bytes"
        }
      ],
      "name": "onERC721XBatchReceived",
      "outputs": [
        {
          "name": "",
          "type": "bytes4"
        }
      ],
      "payable": false,
      "stateMutability": "pure",
      "type": "function"
    },
    {
      "constant": true,
      "inputs": [
        {
          "name": "_from",
          "type": "address"
        },
        {
          "name": "_value",
          "type": "uint256"
        },
        {
          "name": "_data",
          "type": "bytes"
        }
      ],
      "name": "tokenFallback",
      "outputs": [],
      "payable": false,
      "stateMutability": "pure",
      "type": "function"
    },
    {
      "constant": true,
      "inputs": [],
      "name": "keyManager",
      "outputs": [
        {
          "name": "",
          "type": "address"
        }
      ],
      "payable": false,
      "stateMutability": "view",
      "type": "function"
    },
    {
      "constant": false,
      "inputs": [
        {
          "name": "_from",
          "type": "address"
        },
        {
          "name": "_tokenId",
          "type": "uint256"
        },
        {
          "name": "data",
          "type": "bytes"
        }
      ],
      "name": "onERC721Received",
      "outputs": [
        {
          "name": "",
          "type": "bytes4"
        }
      ],
      "payable": false,
      "stateMutability": "nonpayable",
      "type": "function"
    },
    {
      "payable": true,
      "stateMutability": "payable",
      "type": "fallback"
    },
    {
      "anonymous": false,
      "inputs": [
        {
          "indexed": false,
          "name": "_keyManager",
          "type": "address"
        },
        {
          "indexed": false,
          "name": "_cosigner",
          "type": "address"
        }
      ],
      "name": "Authorized",
      "type": "event"
    },
    {
      "anonymous": false,
      "inputs": [
        {
          "indexed": false,
          "name": "_cosigner",
          "type": "address"
        }
      ],
      "name": "EmergencyRecovered",
      "type": "event"
    },
    {
      "anonymous": false,
      "inputs": [
        {
          "indexed": false,
          "name": "from",
          "type": "address"
        },
        {
          "indexed": false,
          "name": "value",
          "type": "uint256"
        }
      ],
      "name": "Received",
      "type": "event"
    },
    {
      "anonymous": false,
      "inputs": [
        {
          "indexed": false,
          "name": "_to",
          "type": "address"
        },
        {
          "indexed": false,
          "name": "_data",
          "type": "bytes"
        },
        {
          "indexed": false,
          "name": "success",
          "type": "bool"
        }
      ],
      "name": "InvocationSuccess",
      "type": "event"
    },
    {
      "constant": false,
      "inputs": [
        {
          "name": "_cosigner",
          "type": "address"
        },
        {
          "name": "_keyManager",
          "type": "address"
        }
      ],
      "name": "init",
      "outputs": [],
      "payable": false,
      "stateMutability": "nonpayable",
      "type": "function"
    },
    {
      "constant": false,
      "inputs": [
        {
          "name": "v",
          "type": "uint8[2]"
        },
        {
          "name": "r",
          "type": "bytes32[2]"
        },
        {
          "name": "s",
          "type": "bytes32[2]"
        },
        {
          "name": "_nonce",
          "type": "uint256"
        },
        {
          "name": "_authorized",
          "type": "address"
        },
        {
          "name": "_data",
          "type": "bytes"
        },
        {
          "name": "_to",
          "type": "address"
        },
        {
          "name": "_value",
          "type": "uint256"
        }
      ],
      "name": "invoke",
      "outputs": [],
      "payable": false,
      "stateMutability": "nonpayable",
      "type": "function"
    },
    {
      "constant": false,
      "inputs": [
        {
          "name": "v",
          "type": "uint8[2]"
        },
        {
          "name": "r",
          "type": "bytes32[2]"
        },
        {
          "name": "s",
          "type": "bytes32[2]"
        },
        {
          "name": "_nonce",
          "type": "uint256"
        },
        {
          "name": "_cosigner",
          "type": "address"
        }
      ],
      "name": "emergencyRecovery",
      "outputs": [],
      "payable": false,
      "stateMutability": "nonpayable",
      "type": "function"
    },
    {
      "constant": true,
      "inputs": [
        {
          "name": "_nonce",
          "type": "uint256"
        },
        {
          "name": "_authorized",
          "type": "address"
        },
        {
          "name": "_data",
          "type": "bytes"
        }
      ],
      "name": "createHashInvoke",
      "outputs": [
        {
          "name": "",
          "type": "bytes32"
        }
      ],
      "payable": false,
      "stateMutability": "view",
      "type": "function"
    },
    {
      "constant": true,
      "inputs": [
        {
          "name": "_nonce",
          "type": "uint256"
        },
        {
          "name": "_cosigner",
          "type": "address"
        }
      ],
      "name": "createHashRecovery",
      "outputs": [
        {
          "name": "",
          "type": "bytes32"
        }
      ],
      "payable": false,
      "stateMutability": "view",
      "type": "function"
    }
  ],
  "bytecode": "0x608060405234801561001057600080fd5b50612a26806100206000396000f3fe6080604052600436106100fe5760003560e01c8063affed0e011610095578063e7fde1c011610064578063e7fde1c014610b19578063ec54c47f14610b70578063efc250a414610bea578063f09a401614610ce3578063f0b9e5ba14610d54576100fe565b8063affed0e014610674578063b3b0f4c71461069f578063c0ee0b8a14610921578063cf4ce0a014610a13576100fe565b8063681232ad116100d1578063681232ad1461041557806378a5e4f21461046c57806378ed5d81146104db57806393ba7daa14610506576100fe565b806308405166146101ee578063150b7a0214610257578063158ef93e146103bb5780632360eb39146103ea575b60008036905014610177576040517f08c379a00000000000000000000000000000000000000000000000000000000081526004018080602001828103825260148152602001807f496e76616c6964207472616e73616374696f6e2e00000000000000000000000081525060200191505060405180910390fd5b60003411156101ec577f88a5966d370b9919b20f3e2c13ff65706f196a4e32cc2c12bf57088f885258743334604051808373ffffffffffffffffffffffffffffffffffffffff1673ffffffffffffffffffffffffffffffffffffffff1681526020018281526020019250505060405180910390a15b005b3480156101fa57600080fd5b50610203610e56565b60405180827bffffffffffffffffffffffffffffffffffffffffffffffffffffffff19167bffffffffffffffffffffffffffffffffffffffffffffffffffffffff1916815260200191505060405180910390f35b34801561026357600080fd5b506103676004803603608081101561027a57600080fd5b81019080803573ffffffffffffffffffffffffffffffffffffffff169060200190929190803573ffffffffffffffffffffffffffffffffffffffff16906020019092919080359060200190929190803590602001906401000000008111156102e157600080fd5b8201836020820111156102f357600080fd5b8035906020019184600183028401116401000000008311171561031557600080fd5b91908080601f016020809104026020016040519081016040528093929190818152602001838380828437600081840152601f19601f820116905080830192505050505050509192919290505050610e61565b60405180827bffffffffffffffffffffffffffffffffffffffffffffffffffffffff19167bffffffffffffffffffffffffffffffffffffffffffffffffffffffff1916815260200191505060405180910390f35b3480156103c757600080fd5b506103d0610e75565b604051808215151515815260200191505060405180910390f35b3480156103f657600080fd5b506103ff610e88565b6040518082815260200191505060405180910390f35b34801561042157600080fd5b5061042a610e8d565b604051808273ffffffffffffffffffffffffffffffffffffffff1673ffffffffffffffffffffffffffffffffffffffff16815260200191505060405180910390f35b34801561047857600080fd5b506104c56004803603604081101561048f57600080fd5b8101908080359060200190929190803573ffffffffffffffffffffffffffffffffffffffff169060200190929190505050610eb3565b6040518082815260200191505060405180910390f35b3480156104e757600080fd5b506104f0610fa5565b6040518082815260200191505060405180910390f35b34801561051257600080fd5b50610620600480360360a081101561052957600080fd5b81019080803573ffffffffffffffffffffffffffffffffffffffff169060200190929190803573ffffffffffffffffffffffffffffffffffffffff16906020019092919080359060200190929190803590602001909291908035906020019064010000000081111561059a57600080fd5b8201836020820111156105ac57600080fd5b803590602001918460018302840111640100000000831117156105ce57600080fd5b91908080601f016020809104026020016040519081016040528093929190818152602001838380828437600081840152601f19601f820116905080830192505050505050509192919290505050610faa565b60405180827bffffffffffffffffffffffffffffffffffffffffffffffffffffffff19167bffffffffffffffffffffffffffffffffffffffffffffffffffffffff1916815260200191505060405180910390f35b34801561068057600080fd5b50610689610fbf565b6040518082815260200191505060405180910390f35b3480156106ab57600080fd5b506108cd600480360360a08110156106c257600080fd5b81019080803573ffffffffffffffffffffffffffffffffffffffff169060200190929190803573ffffffffffffffffffffffffffffffffffffffff1690602001909291908035906020019064010000000081111561071f57600080fd5b82018360208201111561073157600080fd5b8035906020019184602083028401116401000000008311171561075357600080fd5b919080806020026020016040519081016040528093929190818152602001838360200280828437600081840152601f19601f820116905080830192505050505050509192919290803590602001906401000000008111156107b357600080fd5b8201836020820111156107c557600080fd5b803590602001918460208302840111640100000000831117156107e757600080fd5b919080806020026020016040519081016040528093929190818152602001838360200280828437600081840152601f19601f8201169050808301925050505050505091929192908035906020019064010000000081111561084757600080fd5b82018360208201111561085957600080fd5b8035906020019184600183028401116401000000008311171561087b57600080fd5b91908080601f016020809104026020016040519081016040528093929190818152602001838380828437600081840152601f19601f820116905080830192505050505050509192919290505050610fc5565b60405180827bffffffffffffffffffffffffffffffffffffffffffffffffffffffff19167bffffffffffffffffffffffffffffffffffffffffffffffffffffffff1916815260200191505060405180910390f35b34801561092d57600080fd5b50610a116004803603606081101561094457600080fd5b81019080803573ffffffffffffffffffffffffffffffffffffffff169060200190929190803590602001909291908035906020019064010000000081111561098b57600080fd5b82018360208201111561099d57600080fd5b803590602001918460018302840111640100000000831117156109bf57600080fd5b91908080601f016020809104026020016040519081016040528093929190818152602001838380828437600081840152601f19601f820116905080830192505050505050509192919290505050610fda565b005b348015610a1f57600080fd5b50610b0360048036036060811015610a3657600080fd5b8101908080359060200190929190803573ffffffffffffffffffffffffffffffffffffffff16906020019092919080359060200190640100000000811115610a7d57600080fd5b820183602082011115610a8f57600080fd5b80359060200191846001830284011164010000000083111715610ab157600080fd5b91908080601f016020809104026020016040519081016040528093929190818152602001838380828437600081840152601f19601f820116905080830192505050505050509192919290505050610fdf565b6040518082815260200191505060405180910390f35b348015610b2557600080fd5b50610b2e611125565b604051808273ffffffffffffffffffffffffffffffffffffffff1673ffffffffffffffffffffffffffffffffffffffff16815260200191505060405180910390f35b348015610b7c57600080fd5b50610be86004803603610100811015610b9457600080fd5b8101908080604001909192919290806040019091929192908060400190919291929080359060200190929190803573ffffffffffffffffffffffffffffffffffffffff16906020019092919050505061114b565b005b348015610bf657600080fd5b50610ce16004803603610160811015610c0e57600080fd5b8101908080604001909192919290806040019091929192908060400190919291929080359060200190929190803573ffffffffffffffffffffffffffffffffffffffff16906020019092919080359060200190640100000000811115610c7357600080fd5b820183602082011115610c8557600080fd5b80359060200191846001830284011164010000000083111715610ca757600080fd5b9091929391929390803573ffffffffffffffffffffffffffffffffffffffff16906020019092919080359060200190929190505050611c1c565b005b348015610cef57600080fd5b50610d5260048036036040811015610d0657600080fd5b81019080803573ffffffffffffffffffffffffffffffffffffffff169060200190929190803573ffffffffffffffffffffffffffffffffffffffff169060200190929190505050612338565b005b348015610d6057600080fd5b50610e0260048036036060811015610d7757600080fd5b81019080803573ffffffffffffffffffffffffffffffffffffffff1690602001909291908035906020019092919080359060200190640100000000811115610dbe57600080fd5b820183602082011115610dd057600080fd5b80359060200191846001830284011164010000000083111715610df257600080fd5b9091929391929390505050612821565b60405180827bffffffffffffffffffffffffffffffffffffffffffffffffffffffff19167bffffffffffffffffffffffffffffffffffffffffffffffffffffffff1916815260200191505060405180910390f35b63c0ee0b8a60e01b81565b600063150b7a0260e01b9050949350505050565b600260149054906101000a900460ff1681565b600181565b600260009054906101000a900473ffffffffffffffffffffffffffffffffffffffff1681565b600080308484604051602001808473ffffffffffffffffffffffffffffffffffffffff1673ffffffffffffffffffffffffffffffffffffffff1660601b81526014018381526020018273ffffffffffffffffffffffffffffffffffffffff1673ffffffffffffffffffffffffffffffffffffffff1660601b815260140193505050506040516020818303038152906040528051906020012090508060405160200180807f19457468657265756d205369676e6564204d6573736167653a0a333200000000815250601c018281526020019150506040516020818303038152906040528051906020012091505092915050565b600281565b600063660b337060e01b905095945050505050565b60005481565b600063e9e5be6a60e01b905095945050505050565b505050565b60008030858585604051602001808573ffffffffffffffffffffffffffffffffffffffff1673ffffffffffffffffffffffffffffffffffffffff1660601b81526014018481526020018373ffffffffffffffffffffffffffffffffffffffff1673ffffffffffffffffffffffffffffffffffffffff1660601b815260140182805190602001908083835b6020831061108c5780518252602082019150602081019050602083039250611069565b6001836020036101000a0380198251168184511680821785525050505050509050019450505050506040516020818303038152906040528051906020012090508060405160200180807f19457468657265756d205369676e6564204d6573736167653a0a333200000000815250601c01828152602001915050604051602081830303815290604052805190602001209150509392505050565b600160009054906101000a900473ffffffffffffffffffffffffffffffffffffffff1681565b81600054146111c2576040517f08c379a000000000000000000000000000000000000000000000000000000000815260040180806020018281038252600d8152602001807f696e76616c6964206e6f6e63650000000000000000000000000000000000000081525060200191505060405180910390fd5b601b856000600281106111d157fe5b602002013560ff1660ff1614806111ff5750601c856000600281106111f257fe5b602002013560ff1660ff16145b611271576040517f08c379a000000000000000000000000000000000000000000000000000000000815260040180806020018281038252601e8152602001807f696e76616c6964207369676e61747572652076657273696f6e20765b305d000081525060200191505060405180910390fd5b601b8560016002811061128057fe5b602002013560ff1660ff1614806112ae5750601c856001600281106112a157fe5b602002013560ff1660ff16145b611320576040517f08c379a000000000000000000000000000000000000000000000000000000000815260040180806020018281038252601e8152602001807f696e76616c6964207369676e61747572652076657273696f6e20765b315d000081525060200191505060405180910390fd5b600160009054906101000a900473ffffffffffffffffffffffffffffffffffffffff1673ffffffffffffffffffffffffffffffffffffffff1663edf26d9b60016040518263ffffffff1660e01b81526004018082815260200191505060206040518083038186803b15801561139457600080fd5b505afa1580156113a8573d6000803e3d6000fd5b505050506040513d60208110156113be57600080fd5b810190808051906020019092919050505073ffffffffffffffffffffffffffffffffffffffff168173ffffffffffffffffffffffffffffffffffffffff161415611453576040517f08c379a00000000000000000000000000000000000000000000000000000000081526004018080602001828103825260308152602001806129726030913960400191505060405180910390fd5b600160009054906101000a900473ffffffffffffffffffffffffffffffffffffffff1673ffffffffffffffffffffffffffffffffffffffff1663edf26d9b60026040518263ffffffff1660e01b81526004018082815260200191505060206040518083038186803b1580156114c757600080fd5b505afa1580156114db573d6000803e3d6000fd5b505050506040513d60208110156114f157600080fd5b810190808051906020019092919050505073ffffffffffffffffffffffffffffffffffffffff168173ffffffffffffffffffffffffffffffffffffffff161415611586576040517f08c379a000000000000000000000000000000000000000000000000000000000815260040180806020018281038252602e8152602001806129a2602e913960400191505060405180910390fd5b600073ffffffffffffffffffffffffffffffffffffffff168173ffffffffffffffffffffffffffffffffffffffff161415611629576040517f08c379a000000000000000000000000000000000000000000000000000000000815260040180806020018281038252601e8152602001807f54686520636f7369676e6572206d757374206e6f74206265207a65726f2e000081525060200191505060405180910390fd5b60006116358383610eb3565b905060006001828860006002811061164957fe5b602002013560ff168860006002811061165e57fe5b60200201358860006002811061167057fe5b602002013560405160008152602001604052604051808581526020018460ff1660ff1681526020018381526020018281526020019450505050506020604051602081039080840390855afa1580156116cc573d6000803e3d6000fd5b5050506020604051035190506000600183896001600281106116ea57fe5b602002013560ff16896001600281106116ff57fe5b60200201358960016002811061171157fe5b602002013560405160008152602001604052604051808581526020018460ff1660ff1681526020018381526020018281526020019450505050506020604051602081039080840390855afa15801561176d573d6000803e3d6000fd5b505050602060405103519050600073ffffffffffffffffffffffffffffffffffffffff168273ffffffffffffffffffffffffffffffffffffffff16141561181c576040517f08c379a000000000000000000000000000000000000000000000000000000000815260040180806020018281038252601d8152602001807f496e76616c6964207369676e617475726520666f72207369676e65722e00000081525060200191505060405180910390fd5b600073ffffffffffffffffffffffffffffffffffffffff168173ffffffffffffffffffffffffffffffffffffffff1614156118bf576040517f08c379a000000000000000000000000000000000000000000000000000000000815260040180806020018281038252601e8152602001807f496e76616c6964207369676e617475726520666f72207265636f7665722e000081525060200191505060405180910390fd5b8173ffffffffffffffffffffffffffffffffffffffff16600160009054906101000a900473ffffffffffffffffffffffffffffffffffffffff1673ffffffffffffffffffffffffffffffffffffffff1663edf26d9b60016040518263ffffffff1660e01b81526004018082815260200191505060206040518083038186803b15801561194a57600080fd5b505afa15801561195e573d6000803e3d6000fd5b505050506040513d602081101561197457600080fd5b810190808051906020019092919050505073ffffffffffffffffffffffffffffffffffffffff1614611a0e576040517f08c379a000000000000000000000000000000000000000000000000000000000815260040180806020018281038252601f8152602001807f496e76616c696420617574686f72697a6174696f6e20696e207369676e65720081525060200191505060405180910390fd5b8073ffffffffffffffffffffffffffffffffffffffff16600160009054906101000a900473ffffffffffffffffffffffffffffffffffffffff1673ffffffffffffffffffffffffffffffffffffffff1663edf26d9b60026040518263ffffffff1660e01b81526004018082815260200191505060206040518083038186803b158015611a9957600080fd5b505afa158015611aad573d6000803e3d6000fd5b505050506040513d6020811015611ac357600080fd5b810190808051906020019092919050505073ffffffffffffffffffffffffffffffffffffffff1614611b5d576040517f08c379a00000000000000000000000000000000000000000000000000000000081526004018080602001828103825260208152602001807f496e76616c696420617574686f72697a6174696f6e20696e207265636f76657281525060200191505060405180910390fd5b600080815480929190600101919050555083600260006101000a81548173ffffffffffffffffffffffffffffffffffffffff021916908373ffffffffffffffffffffffffffffffffffffffff1602179055507fb717711372a380663f1d49a42cd76b5419691f4a0b79a0767b096bb25543055784604051808273ffffffffffffffffffffffffffffffffffffffff1673ffffffffffffffffffffffffffffffffffffffff16815260200191505060405180910390a15050505050505050565b8560005414611c93576040517f08c379a000000000000000000000000000000000000000000000000000000000815260040180806020018281038252600d8152602001807f696e76616c6964206e6f6e63650000000000000000000000000000000000000081525060200191505060405180910390fd5b601b89600060028110611ca257fe5b602002013560ff1660ff161480611cd05750601c89600060028110611cc357fe5b602002013560ff1660ff16145b611d42576040517f08c379a000000000000000000000000000000000000000000000000000000000815260040180806020018281038252601e8152602001807f696e76616c6964207369676e61747572652076657273696f6e20765b305d000081525060200191505060405180910390fd5b601b89600160028110611d5157fe5b602002013560ff1660ff161480611d7f5750601c89600160028110611d7257fe5b602002013560ff1660ff16145b611df1576040517f08c379a000000000000000000000000000000000000000000000000000000000815260040180806020018281038252601e8152602001807f696e76616c6964207369676e61747572652076657273696f6e20765b315d000081525060200191505060405180910390fd5b6000611e42878787878080601f016020809104026020016040519081016040528093929190818152602001838380828437600081840152601f19601f82011690508083019250505050505050610fdf565b905060006001828c600060028110611e5657fe5b602002013560ff168c600060028110611e6b57fe5b60200201358c600060028110611e7d57fe5b602002013560405160008152602001604052604051808581526020018460ff1660ff1681526020018381526020018281526020019450505050506020604051602081039080840390855afa158015611ed9573d6000803e3d6000fd5b50505060206040510351905060006001838d600160028110611ef757fe5b602002013560ff168d600160028110611f0c57fe5b60200201358d600160028110611f1e57fe5b602002013560405160008152602001604052604051808581526020018460ff1660ff1681526020018381526020018281526020019450505050506020604051602081039080840390855afa158015611f7a573d6000803e3d6000fd5b505050602060405103519050600073ffffffffffffffffffffffffffffffffffffffff168273ffffffffffffffffffffffffffffffffffffffff161415612029576040517f08c379a000000000000000000000000000000000000000000000000000000000815260040180806020018281038252601d8152602001807f496e76616c6964207369676e617475726520666f72207369676e65722e00000081525060200191505060405180910390fd5b600073ffffffffffffffffffffffffffffffffffffffff168173ffffffffffffffffffffffffffffffffffffffff1614156120cc576040517f08c379a000000000000000000000000000000000000000000000000000000000815260040180806020018281038252601f8152602001807f496e76616c6964207369676e617475726520666f7220636f7369676e65722e0081525060200191505060405180910390fd5b600160009054906101000a900473ffffffffffffffffffffffffffffffffffffffff1673ffffffffffffffffffffffffffffffffffffffff1663edf26d9b60016040518263ffffffff1660e01b81526004018082815260200191505060206040518083038186803b15801561214057600080fd5b505afa158015612154573d6000803e3d6000fd5b505050506040513d602081101561216a57600080fd5b810190808051906020019092919050505073ffffffffffffffffffffffffffffffffffffffff168273ffffffffffffffffffffffffffffffffffffffff16146121fe576040517f08c379a00000000000000000000000000000000000000000000000000000000081526004018080602001828103825260228152602001806129d06022913960400191505060405180910390fd5b600260009054906101000a900473ffffffffffffffffffffffffffffffffffffffff1673ffffffffffffffffffffffffffffffffffffffff168173ffffffffffffffffffffffffffffffffffffffff16146122c1576040517f08c379a00000000000000000000000000000000000000000000000000000000081526004018080602001828103825260208152602001807f636f7369676e657220616464726573736573206d75737420626520657175616c81525060200191505060405180910390fd5b6000808154809291906001019190505550612321858589898080601f016020809104026020016040519081016040528093929190818152602001838380828437600081840152601f19601f82011690508083019250505050505050612835565b61232a57600080fd5b505050505050505050505050565b600260149054906101000a900460ff16156123bb576040517f08c379a000000000000000000000000000000000000000000000000000000000815260040180806020018281038252601f8152602001807f6d757374206e6f7420616c726561647920626520696e697469616c697a65640081525060200191505060405180910390fd5b8073ffffffffffffffffffffffffffffffffffffffff1663edf26d9b60016040518263ffffffff1660e01b81526004018082815260200191505060206040518083038186803b15801561240d57600080fd5b505afa158015612421573d6000803e3d6000fd5b505050506040513d602081101561243757600080fd5b810190808051906020019092919050505073ffffffffffffffffffffffffffffffffffffffff168273ffffffffffffffffffffffffffffffffffffffff1614156124cc576040517f08c379a00000000000000000000000000000000000000000000000000000000081526004018080602001828103825260308152602001806129726030913960400191505060405180910390fd5b8073ffffffffffffffffffffffffffffffffffffffff1663edf26d9b60026040518263ffffffff1660e01b81526004018082815260200191505060206040518083038186803b15801561251e57600080fd5b505afa158015612532573d6000803e3d6000fd5b505050506040513d602081101561254857600080fd5b810190808051906020019092919050505073ffffffffffffffffffffffffffffffffffffffff168273ffffffffffffffffffffffffffffffffffffffff1614156125dd576040517f08c379a000000000000000000000000000000000000000000000000000000000815260040180806020018281038252602e8152602001806129a2602e913960400191505060405180910390fd5b600073ffffffffffffffffffffffffffffffffffffffff168273ffffffffffffffffffffffffffffffffffffffff161415612663576040517f08c379a00000000000000000000000000000000000000000000000000000000081526004018080602001828103825260228152602001806129506022913960400191505060405180910390fd5b600073ffffffffffffffffffffffffffffffffffffffff168173ffffffffffffffffffffffffffffffffffffffff1614156126e9576040517f08c379a000000000000000000000000000000000000000000000000000000000815260040180806020018281038252602681526020018061292a6026913960400191505060405180910390fd5b81600260006101000a81548173ffffffffffffffffffffffffffffffffffffffff021916908373ffffffffffffffffffffffffffffffffffffffff16021790555080600160006101000a81548173ffffffffffffffffffffffffffffffffffffffff021916908373ffffffffffffffffffffffffffffffffffffffff1602179055506001600260146101000a81548160ff0219169083151502179055507ff5a7f4fb8a92356e8c8c4ae7ac3589908381450500a7e2fd08c95600021ee8898183604051808373ffffffffffffffffffffffffffffffffffffffff1673ffffffffffffffffffffffffffffffffffffffff1681526020018273ffffffffffffffffffffffffffffffffffffffff1673ffffffffffffffffffffffffffffffffffffffff1681526020019250505060405180910390a15050565b600063f0b9e5ba60e01b9050949350505050565b600080600083516020850186885af190507f7191be378f115093910ad06c0e73ffeb45d272c499d01def3512826041751ef8848383604051808473ffffffffffffffffffffffffffffffffffffffff1673ffffffffffffffffffffffffffffffffffffffff1681526020018060200183151515158152602001828103825284818151815260200191508051906020019080838360005b838110156128e65780820151818401526020810190506128cb565b50505050905090810190601f1680156129135780820380516001836020036101000a031916815260200191505b5094505050505060405180910390a1939250505056fe417574686f72697a656420616464726573736573206d757374206e6f74206265207a65726f2e496e697469616c20636f7369676e6572206d757374206e6f74206265207a65726f2e446f206e6f74207573652074686520617574686f72697a65642061646472657373206173206120636f7369676e65722e446f206e6f742075736520746865207265636f766572792061646472657373206173206120636f7369676e65722e617574686f72697a656420616464726573736573206d75737420626520657175616ca265627a7a72305820d6c70a61bbedf5cdaec172d8f94f47b79dcdc90104b6aaf42dcc938bfbc369aa64736f6c634300050a0032",
  "source": "pragma solidity ^0.5.10;\n\nimport \"./ERC721/ERC721Receivable.sol\";\nimport \"./ERC721X/ERC721XReceiver.sol\";\nimport \"./ERC223/ERC223Receiver.sol\";\nimport \"./KeyManager.sol\";\n\ncontract CloneableWallet is ERC721Receivable, ERC223Receiver, ERC721XReceiver {\n\n\tuint public constant AUTHORIZED = 1;\n\tuint public constant RECOVERY = 2;\n\tuint public nonce;\n\taddress public keyManager;\n\taddress public cosigner;\n\tbool public initialized;\n\n\tevent Authorized(address _keyManager, address _cosigner);\n\tevent EmergencyRecovered(address _cosigner);\n\tevent Received(address from, uint value);\n\tevent InvocationSuccess(address _to, bytes _data, bool success);\n\n\tfunction() external payable {\n\t\trequire(msg.data.length == 0, \"Invalid transaction.\");\n\t\tif (msg.value > 0) {\n\t\t\temit Received(msg.sender, msg.value);\n\t\t}\n\t}\n\n\tfunction init(address _cosigner, address _keyManager) external {\n\t\trequire(!initialized, \"must not already be initialized\");\n\t\trequire(_cosigner != KeyManager(_keyManager).addresses(AUTHORIZED), \"Do not use the authorized address as a cosigner.\");\n\t\trequire(_cosigner != KeyManager(_keyManager).addresses(RECOVERY), \"Do not use the recovery address as a cosigner.\");\n\t\trequire(_cosigner != address(0), \"Initial cosigner must not be zero.\");\n\t\trequire(_keyManager != address(0), \"Authorized addresses must not be zero.\");\n\n\t\tcosigner = _cosigner;\n\t\tkeyManager = _keyManager;\n\t\tinitialized = true;\n\n\t\temit Authorized(_keyManager, _cosigner);\n\t}\n\n\tfunction invoke(uint8[2] calldata v, bytes32[2] calldata r, bytes32[2] calldata s, uint _nonce, address _authorized, bytes calldata _data, address _to, uint _value) external {\n\t\trequire(nonce == _nonce, \"invalid nonce\");\n\t\trequire(v[0] == 27 || v[0] == 28, \"invalid signature version v[0]\");\n\t\trequire(v[1] == 27 || v[1] == 28, \"invalid signature version v[1]\");\n\n\t  bytes32 _operationHash = createHashInvoke(_nonce, _authorized, _data);\n\t\taddress _signer = ecrecover(_operationHash, v[0], r[0], s[0]);\n\t\taddress _cosigner = ecrecover(_operationHash, v[1], r[1], s[1]);\n\n\t\trequire(_signer != address(0), \"Invalid signature for signer.\");\n\t\trequire(_cosigner != address(0), \"Invalid signature for cosigner.\");\n\t\trequire(_signer == KeyManager(keyManager).addresses(AUTHORIZED), \"authorized addresses must be equal\");\n\t\trequire(_cosigner == cosigner, \"cosigner addresses must be equal\");\n\n\t\tnonce++;\n\n\t\trequire(executeCall(_to, _value, _data));\n\t}\n\n\tfunction emergencyRecovery(uint8[2] calldata v, bytes32[2] calldata r, bytes32[2] calldata s, uint _nonce, address _cosigner) external {\n\t\trequire(nonce == _nonce, \"invalid nonce\");\n\t\trequire(v[0] == 27 || v[0] == 28, \"invalid signature version v[0]\");\n\t\trequire(v[1] == 27 || v[1] == 28, \"invalid signature version v[1]\");\n\t\trequire(_cosigner != KeyManager(keyManager).addresses(AUTHORIZED), \"Do not use the authorized address as a cosigner.\");\n\t\trequire(_cosigner != KeyManager(keyManager).addresses(RECOVERY), \"Do not use the recovery address as a cosigner.\");\n\t\trequire(_cosigner != address(0), \"The cosigner must not be zero.\");\n\n\t\tbytes32 _operationHash = createHashRecovery(_nonce, _cosigner);\n\t\taddress _signer = ecrecover(_operationHash, v[0], r[0], s[0]);\n\t\taddress _recover = ecrecover(_operationHash, v[1], r[1], s[1]);\n\n\t\trequire(_signer != address(0), \"Invalid signature for signer.\");\n\t\trequire(_recover != address(0), \"Invalid signature for recover.\");\n\t\trequire(KeyManager(keyManager).addresses(AUTHORIZED) == _signer, \"Invalid authorization in signer\");\n\t\trequire(KeyManager(keyManager).addresses(RECOVERY) == _recover, \"Invalid authorization in recover\");\n\n\t\tnonce++;\n\t\tcosigner = _cosigner;\n\n\t\temit EmergencyRecovered(_cosigner);\n\t}\n\n\tfunction createHashInvoke(uint _nonce, address _authorized, bytes memory _data) public view returns(bytes32) {\n\t\tbytes32 _hash = keccak256(\n\t\t\tabi.encodePacked(\n\t\t\t\tthis,\n\t\t\t\t_nonce,\n\t\t\t\t_authorized,\n\t\t\t\t_data\n\t\t\t)\n\t\t);\n\t\treturn keccak256(\n\t\t\tabi.encodePacked(\n\t\t\t\t\t\"\\x19Ethereum Signed Message:\\n32\",\n\t\t\t\t\t_hash\n\t\t\t)\n\t\t);\n\t}\n\n\tfunction createHashRecovery(uint _nonce, address _cosigner) public view returns(bytes32) {\n\t\tbytes32 _hash = keccak256(\n\t\t\tabi.encodePacked(\n\t\t\t\tthis,\n\t\t\t\t_nonce,\n\t\t\t\t_cosigner\n\t\t\t)\n\t\t);\n\t\treturn keccak256(\n\t\t\tabi.encodePacked(\n\t\t\t\t\"\\x19Ethereum Signed Message:\\n32\",\n\t\t\t\t_hash\n\t\t\t)\n\t\t);\n\t}\n\n\tfunction executeCall(address _to, uint256 _value, bytes memory _data) internal returns (bool success) {\n\t\tassembly {\n\t\t\tsuccess := call(gas, _to, _value, add(_data, 0x20), mload(_data), 0, 0)\n\t\t}\n\t\temit InvocationSuccess(_to, _data, success);\n\t}\n}",
  "sourcePath": "/usr/src/app/react-native-contract-wallet/native-app/contract/contracts/CloneableWallet.sol",
  "compiler": {
    "name": "solc",
    "version": "0.5.10+commit.5a6ea5b1.Emscripten.clang"
  },
  "schemaVersion": "3.0.11",
  "updatedAt": "2019-10-19T07:49:50.153Z",
  "devdoc": {
    "methods": {
      "onERC721Received(address,address,uint256,bytes)": {
        "details": "The ERC721 smart contract calls this function on the recipient after a `safetransfer`. This function MAY throw to revert and reject the transfer. Return of other than the magic value MUST result in the transaction being reverted. Note: the contract address is always the message sender.",
        "params": {
          "_data": "Additional data with no specified format",
          "_from": "The address which previously owned the token",
          "_operator": "The address which called `safeTransferFrom` function",
          "_tokenId": "The NFT identifier which is being transferred"
        },
        "return": "`bytes4(keccak256(\"onERC721Received(address,address,uint256,bytes)\"))`"
      },
      "onERC721Received(address,uint256,bytes)": {
        "details": "The ERC721 smart contract calls this function on the recipient  after a `transfer`. This function MAY throw to revert and reject the  transfer. This function MUST use 50,000 gas or less. Return of other  than the magic value MUST result in the transaction being reverted.  Note: the contract address is always the message sender.",
        "params": {
          "_from": "The sending address ",
          "_tokenId": "The NFT identifier which is being transfered",
          "data": "Additional data with no specified format"
        },
        "return": "`bytes4(keccak256(\"onERC721Received(address,uint256,bytes)\"))`  unless throwing"
      },
      "onERC721XBatchReceived(address,address,uint256[],uint256[],bytes)": {
        "details": "Handle the receipt of multiple fungible tokens from an MFT contract. The ERC721X smart contract calls this function on the recipient after a `batchTransfer`. This function MAY throw to revert and reject the transfer. Return of other than the magic value MUST result in the transaction being reverted. Returns `bytes4(keccak256(\"onERC721XBatchReceived(address,address,uint256[],uint256[],bytes)\"))` unless throwing.",
        "params": {
          "_amounts": "Array of amount of object per type to be transferred.",
          "_data": "Additional data with no specified format.",
          "_from": "The address from which the token was transfered from.",
          "_operator": "The address which called `safeTransferFrom` function.",
          "_types": "Array of types of token being transferred (where each type is represented as an ID)"
        }
      },
      "tokenFallback(address,uint256,bytes)": {
        "params": {
          "_data": "the data sent with the transaction",
          "_from": "the address from which the token was sent",
          "_value": "the amount of tokens sent"
        }
      }
    }
  },
  "userdoc": {
    "methods": {
      "onERC721Received(address,address,uint256,bytes)": {
        "notice": "Handle the receipt of an NFT"
      },
      "onERC721Received(address,uint256,bytes)": {
        "notice": "Handle the receipt of an NFT"
      },
      "onERC721XBatchReceived(address,address,uint256[],uint256[],bytes)": {
        "notice": "The contract address is always the message sender. A wallet/broker/auction application MUST implement the wallet interface if it will accept safe transfers."
      },
      "tokenFallback(address,uint256,bytes)": {
        "notice": "tokenFallback is called from an ERC223 compatible contract"
      }
    }
  }
}