{
  "contractName": "ERC223Receiver",
  "abi": [
    {
      "constant": true,
      "inputs": [],
      "name": "ERC223_ID",
      "outputs": [
        {
          "name": "",
          "type": "bytes4"
        }
      ],
      "payable": false,
      "stateMutability": "view",
      "type": "function"
    },
    {
      "constant": true,
      "inputs": [
        {
          "name": "_from",
          "type": "address"
        },
        {
          "name": "_value",
          "type": "uint256"
        },
        {
          "name": "_data",
          "type": "bytes"
        }
      ],
      "name": "tokenFallback",
      "outputs": [],
      "payable": false,
      "stateMutability": "pure",
      "type": "function"
    }
  ],
  "bytecode": "0x608060405234801561001057600080fd5b506101c1806100206000396000f3fe608060405234801561001057600080fd5b50600436106100365760003560e01c8063084051661461003b578063c0ee0b8a14610097575b600080fd5b61004361017c565b60405180827bffffffffffffffffffffffffffffffffffffffffffffffffffffffff19167bffffffffffffffffffffffffffffffffffffffffffffffffffffffff1916815260200191505060405180910390f35b61017a600480360360608110156100ad57600080fd5b81019080803573ffffffffffffffffffffffffffffffffffffffff16906020019092919080359060200190929190803590602001906401000000008111156100f457600080fd5b82018360208201111561010657600080fd5b8035906020019184600183028401116401000000008311171561012857600080fd5b91908080601f016020809104026020016040519081016040528093929190818152602001838380828437600081840152601f19601f820116905080830192505050505050509192919290505050610187565b005b63c0ee0b8a60e01b81565b50505056fea265627a7a7230582022a4be440c06ac309a8a92ebfdd28fe0cc064fb45b29cefcf15124db8cdbb6d464736f6c634300050a0032",
  "source": "pragma solidity ^0.5.6;\n\n\n/// @title ERC223Receiver ensures we are ERC223 compatible\n/// @author Christopher Scott\ncontract ERC223Receiver {\n\n\tbytes4 public constant ERC223_ID = 0xc0ee0b8a;\n\n\tstruct TKN {\n\t\taddress sender;\n\t\tuint value;\n\t\tbytes data;\n\t\tbytes4 sig;\n\t}\n\n\t/// @notice tokenFallback is called from an ERC223 compatible contract\n\t/// @param _from the address from which the token was sent\n\t/// @param _value the amount of tokens sent\n\t/// @param _data the data sent with the transaction\n\tfunction tokenFallback(address _from, uint _value, bytes memory _data) public pure {\n\t\t_from;\n\t\t_value;\n\t\t_data;\n\t}\n}",
  "sourcePath": "/usr/src/app/my-react-native-contract-wallet/contract/contracts/ERC223/ERC223Receiver.sol",
  "compiler": {
    "name": "solc",
    "version": "0.5.10+commit.5a6ea5b1.Emscripten.clang"
  },
  "schemaVersion": "3.0.11",
  "updatedAt": "2019-11-16T09:04:16.540Z",
  "devdoc": {
    "author": "Christopher Scott",
    "methods": {
      "tokenFallback(address,uint256,bytes)": {
        "params": {
          "_data": "the data sent with the transaction",
          "_from": "the address from which the token was sent",
          "_value": "the amount of tokens sent"
        }
      }
    },
    "title": "ERC223Receiver ensures we are ERC223 compatible"
  },
  "userdoc": {
    "methods": {
      "tokenFallback(address,uint256,bytes)": {
        "notice": "tokenFallback is called from an ERC223 compatible contract"
      }
    }
  }
}