{
  "contractName": "ERC721XReceiver",
  "abi": [
    {
      "constant": true,
      "inputs": [
        {
          "name": "_operator",
          "type": "address"
        },
        {
          "name": "_from",
          "type": "address"
        },
        {
          "name": "tokenId",
          "type": "uint256"
        },
        {
          "name": "amount",
          "type": "uint256"
        },
        {
          "name": "data",
          "type": "bytes"
        }
      ],
      "name": "onERC721XReceived",
      "outputs": [
        {
          "name": "",
          "type": "bytes4"
        }
      ],
      "payable": false,
      "stateMutability": "pure",
      "type": "function"
    },
    {
      "constant": true,
      "inputs": [
        {
          "name": "_operator",
          "type": "address"
        },
        {
          "name": "_from",
          "type": "address"
        },
        {
          "name": "_types",
          "type": "uint256[]"
        },
        {
          "name": "_amounts",
          "type": "uint256[]"
        },
        {
          "name": "_data",
          "type": "bytes"
        }
      ],
      "name": "onERC721XBatchReceived",
      "outputs": [
        {
          "name": "",
          "type": "bytes4"
        }
      ],
      "payable": false,
      "stateMutability": "pure",
      "type": "function"
    }
  ],
  "bytecode": "0x608060405234801561001057600080fd5b50610470806100206000396000f3fe608060405234801561001057600080fd5b50600436106100365760003560e01c806393ba7daa1461003b578063b3b0f4c71461019c575b600080fd5b610148600480360360a081101561005157600080fd5b81019080803573ffffffffffffffffffffffffffffffffffffffff169060200190929190803573ffffffffffffffffffffffffffffffffffffffff1690602001909291908035906020019092919080359060200190929190803590602001906401000000008111156100c257600080fd5b8201836020820111156100d457600080fd5b803590602001918460018302840111640100000000831117156100f657600080fd5b91908080601f016020809104026020016040519081016040528093929190818152602001838380828437600081840152601f19601f820116905080830192505050505050509192919290505050610411565b60405180827bffffffffffffffffffffffffffffffffffffffffffffffffffffffff19167bffffffffffffffffffffffffffffffffffffffffffffffffffffffff1916815260200191505060405180910390f35b6103bd600480360360a08110156101b257600080fd5b81019080803573ffffffffffffffffffffffffffffffffffffffff169060200190929190803573ffffffffffffffffffffffffffffffffffffffff1690602001909291908035906020019064010000000081111561020f57600080fd5b82018360208201111561022157600080fd5b8035906020019184602083028401116401000000008311171561024357600080fd5b919080806020026020016040519081016040528093929190818152602001838360200280828437600081840152601f19601f820116905080830192505050505050509192919290803590602001906401000000008111156102a357600080fd5b8201836020820111156102b557600080fd5b803590602001918460208302840111640100000000831117156102d757600080fd5b919080806020026020016040519081016040528093929190818152602001838360200280828437600081840152601f19601f8201169050808301925050505050505091929192908035906020019064010000000081111561033757600080fd5b82018360208201111561034957600080fd5b8035906020019184600183028401116401000000008311171561036b57600080fd5b91908080601f016020809104026020016040519081016040528093929190818152602001838380828437600081840152601f19601f820116905080830192505050505050509192919290505050610426565b60405180827bffffffffffffffffffffffffffffffffffffffffffffffffffffffff19167bffffffffffffffffffffffffffffffffffffffffffffffffffffffff1916815260200191505060405180910390f35b600063660b337060e01b905095945050505050565b600063e9e5be6a60e01b90509594505050505056fea265627a7a723058209db8133222ff8db223cc1c19f1080f168a94915ba6c7b738a843fb8879dfc1b464736f6c634300050a0032",
  "source": "pragma solidity ^0.5.6;\n\n\n/**\n * @title ERC721X token receiver interface\n * @dev Interface for any contract that wants to support safeTransfers\n *  from ERC721X contracts.\n */\ncontract ERC721XReceiver {\n  /**\n    * @dev Magic value to be returned upon successful reception of an amount of ERC721X tokens\n    *  Equals to `bytes4(keccak256(\"onERC721XReceived(address,uint256,bytes)\"))`,\n    *  which can be also obtained as `ERC721XReceiver(0).onERC721XReceived.selector`\n    */\n  bytes4 constant ERC721X_RECEIVED = 0x660b3370;\n  bytes4 constant ERC721X_BATCH_RECEIVE_SIG = 0xe9e5be6a;\n\n  function onERC721XReceived(address _operator, address _from, uint256 tokenId, uint256 amount, bytes memory data) public pure returns(bytes4) {\n    _operator;\n    _from;\n    tokenId;\n    amount;\n    data;\n    return ERC721X_RECEIVED;\n  }\n\n  /**\n   * @dev Handle the receipt of multiple fungible tokens from an MFT contract. The ERC721X smart contract calls\n   * this function on the recipient after a `batchTransfer`. This function MAY throw to revert and reject the\n   * transfer. Return of other than the magic value MUST result in the transaction being reverted.\n   * Returns `bytes4(keccak256(\"onERC721XBatchReceived(address,address,uint256[],uint256[],bytes)\"))` unless throwing.\n   * @notice The contract address is always the message sender. A wallet/broker/auction application\n   * MUST implement the wallet interface if it will accept safe transfers.\n   * @param _operator The address which called `safeTransferFrom` function.\n   * @param _from The address from which the token was transfered from.\n   * @param _types Array of types of token being transferred (where each type is represented as an ID)\n   * @param _amounts Array of amount of object per type to be transferred.\n   * @param _data Additional data with no specified format.\n   */\n  function onERC721XBatchReceived(address _operator, address _from, uint256[] memory _types, uint256[] memory _amounts, bytes memory _data) public pure returns(bytes4){\n    _operator;\n    _from;\n    _types;\n    _amounts;\n    _data;\n    return ERC721X_BATCH_RECEIVE_SIG;\n  }\n}\n",
  "sourcePath": "/usr/src/app/my-react-native-contract-wallet/contract/contracts/ERC721X/ERC721XReceiver.sol",
  "compiler": {
    "name": "solc",
    "version": "0.5.10+commit.5a6ea5b1.Emscripten.clang"
  },
  "schemaVersion": "3.0.11",
  "updatedAt": "2019-11-16T09:04:16.559Z",
  "devdoc": {
    "details": "Interface for any contract that wants to support safeTransfers from ERC721X contracts.",
    "methods": {
      "onERC721XBatchReceived(address,address,uint256[],uint256[],bytes)": {
        "details": "Handle the receipt of multiple fungible tokens from an MFT contract. The ERC721X smart contract calls this function on the recipient after a `batchTransfer`. This function MAY throw to revert and reject the transfer. Return of other than the magic value MUST result in the transaction being reverted. Returns `bytes4(keccak256(\"onERC721XBatchReceived(address,address,uint256[],uint256[],bytes)\"))` unless throwing.",
        "params": {
          "_amounts": "Array of amount of object per type to be transferred.",
          "_data": "Additional data with no specified format.",
          "_from": "The address from which the token was transfered from.",
          "_operator": "The address which called `safeTransferFrom` function.",
          "_types": "Array of types of token being transferred (where each type is represented as an ID)"
        }
      }
    },
    "title": "ERC721X token receiver interface"
  },
  "userdoc": {
    "methods": {
      "onERC721XBatchReceived(address,address,uint256[],uint256[],bytes)": {
        "notice": "The contract address is always the message sender. A wallet/broker/auction application MUST implement the wallet interface if it will accept safe transfers."
      }
    }
  }
}