{
  "contractName": "ERC721Receivable",
  "abi": [
    {
      "constant": false,
      "inputs": [
        {
          "name": "_operator",
          "type": "address"
        },
        {
          "name": "_from",
          "type": "address"
        },
        {
          "name": "_tokenId",
          "type": "uint256"
        },
        {
          "name": "_data",
          "type": "bytes"
        }
      ],
      "name": "onERC721Received",
      "outputs": [
        {
          "name": "",
          "type": "bytes4"
        }
      ],
      "payable": false,
      "stateMutability": "nonpayable",
      "type": "function"
    },
    {
      "constant": false,
      "inputs": [
        {
          "name": "_from",
          "type": "address"
        },
        {
          "name": "_tokenId",
          "type": "uint256"
        },
        {
          "name": "data",
          "type": "bytes"
        }
      ],
      "name": "onERC721Received",
      "outputs": [
        {
          "name": "",
          "type": "bytes4"
        }
      ],
      "payable": false,
      "stateMutability": "nonpayable",
      "type": "function"
    }
  ],
  "bytecode": "0x608060405234801561001057600080fd5b506102e4806100206000396000f3fe608060405234801561001057600080fd5b50600436106100365760003560e01c8063150b7a021461003b578063f0b9e5ba14610192575b600080fd5b61013e6004803603608081101561005157600080fd5b81019080803573ffffffffffffffffffffffffffffffffffffffff169060200190929190803573ffffffffffffffffffffffffffffffffffffffff16906020019092919080359060200190929190803590602001906401000000008111156100b857600080fd5b8201836020820111156100ca57600080fd5b803590602001918460018302840111640100000000831117156100ec57600080fd5b91908080601f016020809104026020016040519081016040528093929190818152602001838380828437600081840152601f19601f820116905080830192505050505050509192919290505050610287565b60405180827bffffffffffffffffffffffffffffffffffffffffffffffffffffffff19167bffffffffffffffffffffffffffffffffffffffffffffffffffffffff1916815260200191505060405180910390f35b610233600480360360608110156101a857600080fd5b81019080803573ffffffffffffffffffffffffffffffffffffffff16906020019092919080359060200190929190803590602001906401000000008111156101ef57600080fd5b82018360208201111561020157600080fd5b8035906020019184600183028401116401000000008311171561022357600080fd5b909192939192939050505061029b565b60405180827bffffffffffffffffffffffffffffffffffffffffffffffffffffffff19167bffffffffffffffffffffffffffffffffffffffffffffffffffffffff1916815260200191505060405180910390f35b600063150b7a0260e01b9050949350505050565b600063f0b9e5ba60e01b905094935050505056fea265627a7a723058203695ae9eb758911c165403d911987b554dd595111c42d791f9293f8aff03d36764736f6c634300050a0032",
  "source": "pragma solidity ^0.5.6;\n\nimport \"./ERC721ReceiverDraft.sol\";\nimport \"./ERC721ReceiverFinal.sol\";\n\n/// @title ERC721Receivable handles the reception of ERC721 tokens\n///  See ERC721 specification\n/// @author Christopher Scott\n/// @dev These functions are public, and could be called by anyone, even in the case\n///  where no NFTs have been transferred. Since it's not a reliable source of\n///  truth about ERC721 tokens being transferred, we save the gas and don't\n///  bother emitting a (potentially spurious) event as found in \n///  https://github.com/OpenZeppelin/openzeppelin-solidity/blob/5471fc808a17342d738853d7bf3e9e5ef3108074/contracts/mocks/ERC721ReceiverMock.sol\ncontract ERC721Receivable is ERC721ReceiverDraft, ERC721ReceiverFinal {\n\n\t/// @notice Handle the receipt of an NFT\n\t/// @dev The ERC721 smart contract calls this function on the recipient\n\t///  after a `transfer`. This function MAY throw to revert and reject the\n\t///  transfer. This function MUST use 50,000 gas or less. Return of other\n\t///  than the magic value MUST result in the transaction being reverted.\n\t///  Note: the contract address is always the message sender.\n\t/// @param _from The sending address \n\t/// @param _tokenId The NFT identifier which is being transfered\n\t/// @param data Additional data with no specified format\n\t/// @return `bytes4(keccak256(\"onERC721Received(address,uint256,bytes)\"))`\n\t///  unless throwing\n\tfunction onERC721Received(address _from, uint256 _tokenId, bytes calldata data) external returns(bytes4) {\n\t\t_from;\n\t\t_tokenId;\n\t\tdata;\n\t\treturn ERC721_RECEIVED_DRAFT;\n\t}\n\n\t/// @notice Handle the receipt of an NFT\n\t/// @dev The ERC721 smart contract calls this function on the recipient\n\t/// after a `safetransfer`. This function MAY throw to revert and reject the\n\t/// transfer. Return of other than the magic value MUST result in the\n\t/// transaction being reverted.\n\t/// Note: the contract address is always the message sender.\n\t/// @param _operator The address which called `safeTransferFrom` function\n\t/// @param _from The address which previously owned the token\n\t/// @param _tokenId The NFT identifier which is being transferred\n\t/// @param _data Additional data with no specified format\n\t/// @return `bytes4(keccak256(\"onERC721Received(address,address,uint256,bytes)\"))`\n\tfunction onERC721Received(address _operator, address _from, uint256 _tokenId, bytes memory _data) public returns(bytes4) {\n\t\t\t_operator;\n\t\t\t_from;\n\t\t\t_tokenId;\n\t\t\t_data;\n\t\t\treturn ERC721_RECEIVED_FINAL;\n\t}\n}\n",
  "sourcePath": "/usr/src/app/my-react-native-contract-wallet/contract/contracts/ERC721/ERC721Receivable.sol",
  "compiler": {
    "name": "solc",
    "version": "0.5.10+commit.5a6ea5b1.Emscripten.clang"
  },
  "schemaVersion": "3.0.11",
  "updatedAt": "2019-11-16T09:04:16.548Z",
  "devdoc": {
    "author": "Christopher Scott",
    "details": "These functions are public, and could be called by anyone, even in the case  where no NFTs have been transferred. Since it's not a reliable source of  truth about ERC721 tokens being transferred, we save the gas and don't  bother emitting a (potentially spurious) event as found in   https://github.com/OpenZeppelin/openzeppelin-solidity/blob/5471fc808a17342d738853d7bf3e9e5ef3108074/contracts/mocks/ERC721ReceiverMock.sol",
    "methods": {
      "onERC721Received(address,address,uint256,bytes)": {
        "details": "The ERC721 smart contract calls this function on the recipient after a `safetransfer`. This function MAY throw to revert and reject the transfer. Return of other than the magic value MUST result in the transaction being reverted. Note: the contract address is always the message sender.",
        "params": {
          "_data": "Additional data with no specified format",
          "_from": "The address which previously owned the token",
          "_operator": "The address which called `safeTransferFrom` function",
          "_tokenId": "The NFT identifier which is being transferred"
        },
        "return": "`bytes4(keccak256(\"onERC721Received(address,address,uint256,bytes)\"))`"
      },
      "onERC721Received(address,uint256,bytes)": {
        "details": "The ERC721 smart contract calls this function on the recipient  after a `transfer`. This function MAY throw to revert and reject the  transfer. This function MUST use 50,000 gas or less. Return of other  than the magic value MUST result in the transaction being reverted.  Note: the contract address is always the message sender.",
        "params": {
          "_from": "The sending address ",
          "_tokenId": "The NFT identifier which is being transfered",
          "data": "Additional data with no specified format"
        },
        "return": "`bytes4(keccak256(\"onERC721Received(address,uint256,bytes)\"))`  unless throwing"
      }
    },
    "title": "ERC721Receivable handles the reception of ERC721 tokens  See ERC721 specification"
  },
  "userdoc": {
    "methods": {
      "onERC721Received(address,address,uint256,bytes)": {
        "notice": "Handle the receipt of an NFT"
      },
      "onERC721Received(address,uint256,bytes)": {
        "notice": "Handle the receipt of an NFT"
      }
    }
  }
}