{
  "contractName": "KeyManager",
  "abi": [
    {
      "constant": true,
      "inputs": [],
      "name": "AUTHORIZED",
      "outputs": [
        {
          "name": "",
          "type": "uint256"
        }
      ],
      "payable": false,
      "stateMutability": "view",
      "type": "function"
    },
    {
      "constant": true,
      "inputs": [],
      "name": "RECOVERY",
      "outputs": [
        {
          "name": "",
          "type": "uint256"
        }
      ],
      "payable": false,
      "stateMutability": "view",
      "type": "function"
    },
    {
      "constant": true,
      "inputs": [],
      "name": "nonce",
      "outputs": [
        {
          "name": "",
          "type": "uint256"
        }
      ],
      "payable": false,
      "stateMutability": "view",
      "type": "function"
    },
    {
      "constant": true,
      "inputs": [
        {
          "name": "",
          "type": "uint256"
        }
      ],
      "name": "addresses",
      "outputs": [
        {
          "name": "",
          "type": "address"
        }
      ],
      "payable": false,
      "stateMutability": "view",
      "type": "function"
    },
    {
      "inputs": [
        {
          "name": "_authorized",
          "type": "address"
        },
        {
          "name": "_recovery",
          "type": "address"
        }
      ],
      "payable": false,
      "stateMutability": "nonpayable",
      "type": "constructor"
    },
    {
      "anonymous": false,
      "inputs": [
        {
          "indexed": false,
          "name": "_authorized",
          "type": "address"
        },
        {
          "indexed": false,
          "name": "_recovery",
          "type": "address"
        }
      ],
      "name": "Initialized",
      "type": "event"
    },
    {
      "anonymous": false,
      "inputs": [
        {
          "indexed": false,
          "name": "_previous",
          "type": "address"
        },
        {
          "indexed": false,
          "name": "_new",
          "type": "address"
        },
        {
          "indexed": false,
          "name": "_target",
          "type": "uint256"
        }
      ],
      "name": "Reset",
      "type": "event"
    },
    {
      "constant": false,
      "inputs": [
        {
          "name": "v",
          "type": "uint8[2]"
        },
        {
          "name": "r",
          "type": "bytes32[2]"
        },
        {
          "name": "s",
          "type": "bytes32[2]"
        },
        {
          "name": "_nonce",
          "type": "uint256"
        },
        {
          "name": "_target",
          "type": "uint256"
        },
        {
          "name": "_new",
          "type": "address"
        }
      ],
      "name": "update",
      "outputs": [],
      "payable": false,
      "stateMutability": "nonpayable",
      "type": "function"
    },
    {
      "constant": true,
      "inputs": [
        {
          "name": "_nonce",
          "type": "uint256"
        },
        {
          "name": "_target",
          "type": "uint256"
        },
        {
          "name": "_new",
          "type": "address"
        }
      ],
      "name": "createHash",
      "outputs": [
        {
          "name": "",
          "type": "bytes32"
        }
      ],
      "payable": false,
      "stateMutability": "view",
      "type": "function"
    }
  ],
  "bytecode": "0x60806040526001600055600260015534801561001a57600080fd5b506040516111593803806111598339818101604052604081101561003d57600080fd5b8101908080519060200190929190805190602001909291905050508073ffffffffffffffffffffffffffffffffffffffff168273ffffffffffffffffffffffffffffffffffffffff1614156100dd576040517f08c379a00000000000000000000000000000000000000000000000000000000081526004018080602001828103825260398152602001806110fc6039913960400191505060405180910390fd5b600073ffffffffffffffffffffffffffffffffffffffff168273ffffffffffffffffffffffffffffffffffffffff161415610163576040517f08c379a00000000000000000000000000000000000000000000000000000000081526004018080602001828103825260248152602001806110d86024913960400191505060405180910390fd5b600073ffffffffffffffffffffffffffffffffffffffff168173ffffffffffffffffffffffffffffffffffffffff1614156101e9576040517f08c379a00000000000000000000000000000000000000000000000000000000081526004018080602001828103825260248152602001806111356024913960400191505060405180910390fd5b81600360008054815260200190815260200160002060006101000a81548173ffffffffffffffffffffffffffffffffffffffff021916908373ffffffffffffffffffffffffffffffffffffffff1602179055508060036000600154815260200190815260200160002060006101000a81548173ffffffffffffffffffffffffffffffffffffffff021916908373ffffffffffffffffffffffffffffffffffffffff1602179055507f3cd5ec01b1ae7cfec6ca1863e2cd6aa25d6d1702825803ff2b7cc95010fffdc28282604051808373ffffffffffffffffffffffffffffffffffffffff1673ffffffffffffffffffffffffffffffffffffffff1681526020018273ffffffffffffffffffffffffffffffffffffffff1673ffffffffffffffffffffffffffffffffffffffff1681526020019250505060405180910390a15050610da0806103386000396000f3fe608060405234801561001057600080fd5b50600436106100625760003560e01c80630a70d0b7146100675780632360eb39146100d357806378ed5d81146100f1578063affed0e01461010f578063c1fc83571461012d578063edf26d9b146101a4575b600080fd5b6100bd6004803603606081101561007d57600080fd5b810190808035906020019092919080359060200190929190803573ffffffffffffffffffffffffffffffffffffffff169060200190929190505050610212565b6040518082815260200191505060405180910390f35b6100db61030d565b6040518082815260200191505060405180910390f35b6100f9610313565b6040518082815260200191505060405180910390f35b610117610319565b6040518082815260200191505060405180910390f35b6101a2600480360361012081101561014457600080fd5b810190808060400190919291929080604001909192919290806040019091929192908035906020019092919080359060200190929190803573ffffffffffffffffffffffffffffffffffffffff16906020019092919050505061031f565b005b6101d0600480360360208110156101ba57600080fd5b8101908080359060200190929190505050610c54565b604051808273ffffffffffffffffffffffffffffffffffffffff1673ffffffffffffffffffffffffffffffffffffffff16815260200191505060405180910390f35b60008030858585604051602001808573ffffffffffffffffffffffffffffffffffffffff1673ffffffffffffffffffffffffffffffffffffffff1660601b81526014018481526020018381526020018273ffffffffffffffffffffffffffffffffffffffff1673ffffffffffffffffffffffffffffffffffffffff1660601b81526014019450505050506040516020818303038152906040528051906020012090508060405160200180807f19457468657265756d205369676e6564204d6573736167653a0a333200000000815250601c01828152602001915050604051602081830303815290604052805190602001209150509392505050565b60005481565b60015481565b60025481565b8260025414610396576040517f08c379a000000000000000000000000000000000000000000000000000000000815260040180806020018281038252600d8152602001807f696e76616c6964206e6f6e63650000000000000000000000000000000000000081525060200191505060405180910390fd5b601b866000600281106103a557fe5b602002013560ff1660ff1614806103d35750601c866000600281106103c657fe5b602002013560ff1660ff16145b610445576040517f08c379a000000000000000000000000000000000000000000000000000000000815260040180806020018281038252601e8152602001807f696e76616c6964207369676e61747572652076657273696f6e20765b305d000081525060200191505060405180910390fd5b601b8660016002811061045457fe5b602002013560ff1660ff1614806104825750601c8660016002811061047557fe5b602002013560ff1660ff16145b6104f4576040517f08c379a000000000000000000000000000000000000000000000000000000000815260040180806020018281038252601e8152602001807f696e76616c6964207369676e61747572652076657273696f6e20765b315d000081525060200191505060405180910390fd5b600054821480610505575060015482145b61055a576040517f08c379a0000000000000000000000000000000000000000000000000000000008152600401808060200182810382526035815260200180610c886035913960400191505060405180910390fd5b600073ffffffffffffffffffffffffffffffffffffffff168173ffffffffffffffffffffffffffffffffffffffff1614156105e0576040517f08c379a0000000000000000000000000000000000000000000000000000000008152600401808060200182810382526025815260200180610d476025913960400191505060405180910390fd5b600360008054815260200190815260200160002060009054906101000a900473ffffffffffffffffffffffffffffffffffffffff1673ffffffffffffffffffffffffffffffffffffffff168173ffffffffffffffffffffffffffffffffffffffff161415806106b0575060036000600154815260200190815260200160002060009054906101000a900473ffffffffffffffffffffffffffffffffffffffff1673ffffffffffffffffffffffffffffffffffffffff168173ffffffffffffffffffffffffffffffffffffffff1614155b610705576040517f08c379a0000000000000000000000000000000000000000000000000000000008152600401808060200182810382526030815260200180610ce96030913960400191505060405180910390fd5b6000610712848484610212565b905060006001828960006002811061072657fe5b602002013560ff168960006002811061073b57fe5b60200201358960006002811061074d57fe5b602002013560405160008152602001604052604051808581526020018460ff1660ff1681526020018381526020018281526020019450505050506020604051602081039080840390855afa1580156107a9573d6000803e3d6000fd5b50505060206040510351905060006001838a6001600281106107c757fe5b602002013560ff168a6001600281106107dc57fe5b60200201358a6001600281106107ee57fe5b602002013560405160008152602001604052604051808581526020018460ff1660ff1681526020018381526020018281526020019450505050506020604051602081039080840390855afa15801561084a573d6000803e3d6000fd5b505050602060405103519050600073ffffffffffffffffffffffffffffffffffffffff168273ffffffffffffffffffffffffffffffffffffffff1614156108f9576040517f08c379a000000000000000000000000000000000000000000000000000000000815260040180806020018281038252601d8152602001807f496e76616c6964207369676e617475726520666f72207369676e65722e00000081525060200191505060405180910390fd5b600073ffffffffffffffffffffffffffffffffffffffff168173ffffffffffffffffffffffffffffffffffffffff16141561099c576040517f08c379a000000000000000000000000000000000000000000000000000000000815260040180806020018281038252601e8152602001807f496e76616c6964207369676e617475726520666f72207265636f7665722e000081525060200191505060405180910390fd5b8173ffffffffffffffffffffffffffffffffffffffff16600360008054815260200190815260200160002060009054906101000a900473ffffffffffffffffffffffffffffffffffffffff1673ffffffffffffffffffffffffffffffffffffffff1614610a54576040517f08c379a000000000000000000000000000000000000000000000000000000000815260040180806020018281038252602e815260200180610d19602e913960400191505060405180910390fd5b8073ffffffffffffffffffffffffffffffffffffffff1660036000600154815260200190815260200160002060009054906101000a900473ffffffffffffffffffffffffffffffffffffffff1673ffffffffffffffffffffffffffffffffffffffff1614610b0d576040517f08c379a000000000000000000000000000000000000000000000000000000000815260040180806020018281038252602c815260200180610cbd602c913960400191505060405180910390fd5b60006003600087815260200190815260200160002060009054906101000a900473ffffffffffffffffffffffffffffffffffffffff169050846003600088815260200190815260200160002060006101000a81548173ffffffffffffffffffffffffffffffffffffffff021916908373ffffffffffffffffffffffffffffffffffffffff1602179055506002600081548092919060010191905055507f4cfa7a8d220131113d7b539ac0f6eb81ae625126db342de677ea2fa419662dbd818688604051808473ffffffffffffffffffffffffffffffffffffffff1673ffffffffffffffffffffffffffffffffffffffff1681526020018373ffffffffffffffffffffffffffffffffffffffff1673ffffffffffffffffffffffffffffffffffffffff168152602001828152602001935050505060405180910390a150505050505050505050565b60036020528060005260406000206000915054906101000a900473ffffffffffffffffffffffffffffffffffffffff168156fe546172676574206d75736820626520617574686f72697a65642061646472657373206f72207265636f7665727920616464726573735369676e6174757265206d757374206265207369676e6564206279207265636f7665727920616464726573734e65772041646472657373206d757374206469666665722066726f6d2070726576696f7573206164647265737365732e5369676e6174757265206d757374206265207369676e656420627920617574686f72697a65642061646472657373417574686f72697a6564206164647265737365206d757374206e6f74206265207a65726f2ea265627a7a723058205303c2bf177f4fd6bf417bb78cb75319a580d55531ba755a2f8191555f98e35564736f6c634300050a0032417574686f72697a65642061646472657373206d757374206e6f74206265207a65726f2e446f206e6f742075736520746865207265636f76657279206164647265737320617320616e20617574686f72697a656420616464726573732e5265636f76657279e3808041646472657373206d757374206e6f74206265207a65726f2e",
  "source": "pragma solidity ^0.5.10;\n\ncontract KeyManager {\n\n\tevent Initialized(address _authorized, address _recovery);\n\tevent Reset(address _previous, address _new, uint _target);\n\n\tuint public AUTHORIZED = 1;\n\tuint public RECOVERY = 2;\n\tuint public nonce;\n\tmapping (uint => address) public addresses;\n\n\tconstructor (address _authorized, address _recovery) public {\n\t\trequire(_authorized != _recovery, \"Do not use the recovery address as an authorized address.\");\n\t\trequire(_authorized != address(0), \"Authorized address must not be zero.\");\n\t\trequire(_recovery != address(0), \"Recovery　Address must not be zero.\");\n\t\taddresses[AUTHORIZED] = _authorized;\n\t\taddresses[RECOVERY] = _recovery;\n\t\temit Initialized(_authorized, _recovery);\n\t}\n\n\tfunction update(uint8[2] calldata v, bytes32[2] calldata r, bytes32[2] calldata s, uint _nonce, uint _target, address _new) external {\n\t\trequire(nonce == _nonce, \"invalid nonce\");\n\t\trequire(v[0] == 27 || v[0] == 28, \"invalid signature version v[0]\");\n\t\trequire(v[1] == 27 || v[1] == 28, \"invalid signature version v[1]\");\n\t\trequire(_target == AUTHORIZED || _target == RECOVERY, \"Target mush be authorized address or recovery address\");\n\t\trequire(_new != address(0), \"Authorized addresse must not be zero.\");\n\t\trequire(_new != addresses[AUTHORIZED] || _new != addresses[RECOVERY], \"New Address must differ from previous addresses.\");\n\n\t\tbytes32 _operationHash = createHash(_nonce, _target, _new);\n\t\taddress _signer = ecrecover(_operationHash, v[0], r[0], s[0]);\n\t\taddress _recover = ecrecover(_operationHash, v[1], r[1], s[1]);\n\n\t\trequire(_signer != address(0), \"Invalid signature for signer.\");\n\t\trequire(_recover != address(0), \"Invalid signature for recover.\");\n\t\trequire(addresses[AUTHORIZED] == _signer, \"Signature must be signed by authorized address\");\n\t\trequire(addresses[RECOVERY] == _recover, \"Signature must be signed by recovery address\");\n\n\t\taddress _previous;\n\t\t_previous = addresses[_target];\n\t\taddresses[_target] = _new;\n\t\tnonce++;\n\t\temit Reset(_previous, _new, _target);\n\t}\n\n\tfunction createHash(uint _nonce, uint _target, address _new) public view returns(bytes32){\n\t\tbytes32 _hash = keccak256(\n\t\t\tabi.encodePacked(\n\t\t\t\tthis,\n\t\t\t\t_nonce,\n\t\t\t\t_target,\n\t\t\t\t_new\n\t\t\t)\n\t\t);\n\t\treturn keccak256(\n\t\t\tabi.encodePacked(\n\t\t\t\t\"\\x19Ethereum Signed Message:\\n32\",\n\t\t\t\t_hash\n\t\t\t)\n\t\t);\n\t}\n}\n",
  "sourcePath": "/usr/src/app/my-react-native-contract-wallet/contract/contracts/KeyManager.sol",
  "compiler": {
    "name": "solc",
    "version": "0.5.10+commit.5a6ea5b1.Emscripten.clang"
  },
  "schemaVersion": "3.0.11",
  "updatedAt": "2019-11-16T09:11:18.901Z",
  "devdoc": {
    "methods": {}
  },
  "userdoc": {
    "methods": {}
  }
}