{
  "contractName": "WalletFactory",
  "abi": [
    {
      "constant": true,
      "inputs": [],
      "name": "AUTHORIZED",
      "outputs": [
        {
          "name": "",
          "type": "uint256"
        }
      ],
      "payable": false,
      "stateMutability": "view",
      "type": "function"
    },
    {
      "constant": true,
      "inputs": [],
      "name": "cloneableWallet",
      "outputs": [
        {
          "name": "",
          "type": "address"
        }
      ],
      "payable": false,
      "stateMutability": "view",
      "type": "function"
    },
    {
      "constant": true,
      "inputs": [],
      "name": "RECOVERY",
      "outputs": [
        {
          "name": "",
          "type": "uint256"
        }
      ],
      "payable": false,
      "stateMutability": "view",
      "type": "function"
    },
    {
      "constant": true,
      "inputs": [],
      "name": "nonce",
      "outputs": [
        {
          "name": "",
          "type": "uint256"
        }
      ],
      "payable": false,
      "stateMutability": "view",
      "type": "function"
    },
    {
      "constant": true,
      "inputs": [],
      "name": "keyManager",
      "outputs": [
        {
          "name": "",
          "type": "address"
        }
      ],
      "payable": false,
      "stateMutability": "view",
      "type": "function"
    },
    {
      "inputs": [
        {
          "name": "_cloneableWallet",
          "type": "address"
        },
        {
          "name": "_keyManager",
          "type": "address"
        }
      ],
      "payable": false,
      "stateMutability": "nonpayable",
      "type": "constructor"
    },
    {
      "anonymous": false,
      "inputs": [
        {
          "indexed": false,
          "name": "wallet",
          "type": "address"
        },
        {
          "indexed": false,
          "name": "keyManager",
          "type": "address"
        },
        {
          "indexed": false,
          "name": "full",
          "type": "bool"
        }
      ],
      "name": "WalletCreated",
      "type": "event"
    },
    {
      "constant": false,
      "inputs": [
        {
          "name": "v",
          "type": "uint8"
        },
        {
          "name": "r",
          "type": "bytes32"
        },
        {
          "name": "s",
          "type": "bytes32"
        },
        {
          "name": "_cosigner",
          "type": "address"
        },
        {
          "name": "_nonce",
          "type": "uint256"
        }
      ],
      "name": "deployCloneWallet",
      "outputs": [
        {
          "name": "",
          "type": "address"
        }
      ],
      "payable": false,
      "stateMutability": "nonpayable",
      "type": "function"
    },
    {
      "constant": true,
      "inputs": [
        {
          "name": "_nonce",
          "type": "uint256"
        },
        {
          "name": "_cosigner",
          "type": "address"
        }
      ],
      "name": "createHash",
      "outputs": [
        {
          "name": "",
          "type": "bytes32"
        }
      ],
      "payable": false,
      "stateMutability": "view",
      "type": "function"
    }
  ],
  "bytecode": "0x608060405234801561001057600080fd5b50604051610a24380380610a248339818101604052604081101561003357600080fd5b81019080805190602001909291908051906020019092919050505081600160006101000a81548173ffffffffffffffffffffffffffffffffffffffff021916908373ffffffffffffffffffffffffffffffffffffffff16021790555080600260006101000a81548173ffffffffffffffffffffffffffffffffffffffff021916908373ffffffffffffffffffffffffffffffffffffffff1602179055505050610943806100e16000396000f3fe608060405234801561001057600080fd5b506004361061007d5760003560e01c806378ed5d811161005b57806378ed5d811461014c578063affed0e01461016a578063e7fde1c014610188578063fece5b39146101d25761007d565b80632360eb39146100825780635b720ac1146100a0578063769edf6a146100ea575b600080fd5b61008a610281565b6040518082815260200191505060405180910390f35b6100a8610286565b604051808273ffffffffffffffffffffffffffffffffffffffff1673ffffffffffffffffffffffffffffffffffffffff16815260200191505060405180910390f35b6101366004803603604081101561010057600080fd5b8101908080359060200190929190803573ffffffffffffffffffffffffffffffffffffffff1690602001909291905050506102ac565b6040518082815260200191505060405180910390f35b61015461039e565b6040518082815260200191505060405180910390f35b6101726103a3565b6040518082815260200191505060405180910390f35b6101906103a9565b604051808273ffffffffffffffffffffffffffffffffffffffff1673ffffffffffffffffffffffffffffffffffffffff16815260200191505060405180910390f35b61023f600480360360a08110156101e857600080fd5b81019080803560ff1690602001909291908035906020019092919080359060200190929190803573ffffffffffffffffffffffffffffffffffffffff169060200190929190803590602001909291905050506103cf565b604051808273ffffffffffffffffffffffffffffffffffffffff1673ffffffffffffffffffffffffffffffffffffffff16815260200191505060405180910390f35b600181565b600160009054906101000a900473ffffffffffffffffffffffffffffffffffffffff1681565b600080308484604051602001808473ffffffffffffffffffffffffffffffffffffffff1673ffffffffffffffffffffffffffffffffffffffff1660601b81526014018381526020018273ffffffffffffffffffffffffffffffffffffffff1673ffffffffffffffffffffffffffffffffffffffff1660601b815260140193505050506040516020818303038152906040528051906020012090508060405160200180807f19457468657265756d205369676e6564204d6573736167653a0a333200000000815250601c018281526020019150506040516020818303038152906040528051906020012091505092915050565b600281565b60005481565b600260009054906101000a900473ffffffffffffffffffffffffffffffffffffffff1681565b60008160005414610448576040517f08c379a000000000000000000000000000000000000000000000000000000000815260040180806020018281038252600d8152602001807f696e76616c6964206e6f6e63650000000000000000000000000000000000000081525060200191505060405180910390fd5b601b8660ff16148061045d5750601c8660ff16145b6104cf576040517f08c379a00000000000000000000000000000000000000000000000000000000081526004018080602001828103825260198152602001807f696e76616c6964207369676e61747572652076657273696f6e0000000000000081525060200191505060405180910390fd5b60006104db83856102ac565b905060018188888860405160008152602001604052604051808581526020018460ff1660ff1681526020018381526020018281526020019450505050506020604051602081039080840390855afa15801561053a573d6000803e3d6000fd5b5050506020604051035173ffffffffffffffffffffffffffffffffffffffff16600260009054906101000a900473ffffffffffffffffffffffffffffffffffffffff1673ffffffffffffffffffffffffffffffffffffffff1663edf26d9b60016040518263ffffffff1660e01b81526004018082815260200191505060206040518083038186803b1580156105ce57600080fd5b505afa1580156105e2573d6000803e3d6000fd5b505050506040513d60208110156105f857600080fd5b810190808051906020019092919050505073ffffffffffffffffffffffffffffffffffffffff1614610675576040517f08c379a000000000000000000000000000000000000000000000000000000000815260040180806020018281038252602e8152602001806108e1602e913960400191505060405180910390fd5b60006106a2600160009054906101000a900473ffffffffffffffffffffffffffffffffffffffff16610876565b90508073ffffffffffffffffffffffffffffffffffffffff1663f09a401686600260009054906101000a900473ffffffffffffffffffffffffffffffffffffffff166040518363ffffffff1660e01b8152600401808373ffffffffffffffffffffffffffffffffffffffff1673ffffffffffffffffffffffffffffffffffffffff1681526020018273ffffffffffffffffffffffffffffffffffffffff1673ffffffffffffffffffffffffffffffffffffffff16815260200192505050600060405180830381600087803b15801561077957600080fd5b505af115801561078d573d6000803e3d6000fd5b5050505060008081548092919060010191905055507ffd5c7d04ef72e301e8daac76d1bfd9ae073e324f201abf494c837caf16ccd63d81600260009054906101000a900473ffffffffffffffffffffffffffffffffffffffff166000604051808473ffffffffffffffffffffffffffffffffffffffff1673ffffffffffffffffffffffffffffffffffffffff1681526020018373ffffffffffffffffffffffffffffffffffffffff1673ffffffffffffffffffffffffffffffffffffffff16815260200182151515158152602001935050505060405180910390a1809250505095945050505050565b6000808260601b90506040517f3d602d80600a3d3981f3363d3d373d3d3d363d7300000000000000000000000081528160148201527f5af43d82803e903d91602b57fd5bf3000000000000000000000000000000000060288201526037816000f09250505091905056fe5369676e6174757265206d757374206265207369676e656420627920617574686f72697a65642061646472657373a265627a7a723058201e2c1b6715873c6c2539bbd739dce7c5d8215bd60d0da7f3f462e517e51d5d8864736f6c634300050a0032",
  "source": "pragma solidity ^0.5.10;\n\nimport \"./CloneableWallet.sol\";\n\ncontract WalletFactory {\n\n\tuint public constant AUTHORIZED = 1;\n\tuint public constant RECOVERY = 2;\n\tuint public nonce;\n\taddress public cloneableWallet;\n\taddress public keyManager;\n\n\tevent WalletCreated(address wallet, address keyManager, bool full);\n\n\tconstructor(address _cloneableWallet, address _keyManager) public {\n\t\tcloneableWallet = _cloneableWallet;\n\t\tkeyManager = _keyManager;\n\t}\n\n\tfunction deployCloneWallet(uint8 v, bytes32 r, bytes32 s, address _cosigner, uint _nonce) external returns (address payable){\n\t\trequire(nonce == _nonce, \"invalid nonce\");\n\t\trequire(v == 27 || v == 28, \"invalid signature version\");\n\t\tbytes32 _operationHash = createHash(_nonce, _cosigner);\n\t\trequire(KeyManager(keyManager).addresses(AUTHORIZED) == ecrecover(_operationHash, v, r, s), \"Signature must be signed by authorized address\");\n\t\taddress payable clone = createClone(cloneableWallet);\n\t\tCloneableWallet(clone).init(_cosigner, keyManager);\n\t\tnonce++;\n\n\t\temit WalletCreated(clone, keyManager, false);\n\t\treturn clone;\n\t}\n\n\tfunction createHash(uint _nonce, address _cosigner) public view returns(bytes32){\n\t\tbytes32 _hash = keccak256(\n\t\t\tabi.encodePacked(\n\t\t\t\tthis,\n\t\t\t\t_nonce,\n\t\t\t\t_cosigner\n\t\t\t)\n\t\t);\n\t\treturn keccak256(\n\t\t\tabi.encodePacked(\n\t\t\t\t\t\"\\x19Ethereum Signed Message:\\n32\",\n\t\t\t\t\t_hash\n\t\t\t)\n\t\t);\n\t}\n\n\tfunction createClone(address target) internal returns (address payable result) {\n\t\tbytes20 targetBytes = bytes20(target);\n\t\tassembly {\n\t\t\tlet clone := mload(0x40)\n\t\t\tmstore(clone, 0x3d602d80600a3d3981f3363d3d373d3d3d363d73000000000000000000000000)\n\t\t\tmstore(add(clone, 0x14), targetBytes)\n\t\t\tmstore(add(clone, 0x28), 0x5af43d82803e903d91602b57fd5bf30000000000000000000000000000000000)\n\t\t\tresult := create(0, clone, 0x37)\n\t\t}\n\t}\n\n\n}",
  "sourcePath": "/usr/src/app/react-native-contract-wallet/native-app/contract/contracts/WalletFactory.sol",
  "compiler": {
    "name": "solc",
    "version": "0.5.10+commit.5a6ea5b1.Emscripten.clang"
  },
  "schemaVersion": "3.0.11",
  "updatedAt": "2019-10-19T07:49:50.170Z",
  "devdoc": {
    "methods": {}
  },
  "userdoc": {
    "methods": {}
  }
}